:020000040800F2
:1000000050A101248903000829B50008F9A30008BC
:1000100021B5000829170008D90C010800000000CC
:10002000000000000000000000000000A1DC00084B
:10003000392400080000000089C8000831E50008E4
:10004000A3030008A3030008A3030008A3030008F8
:10005000A3030008A3030008A3030008F92600086F
:100060000927000819270008A3030008E11F00085A
:10007000A3030008A3030008A3030008A3030008C8
:10008000A3030008A3030008A3030008A3030008B8
:10009000A3030008A3030008A3030008A3030008A8
:1000A000A3030008A3030008A3030008A303000898
:1000B00051E70008A3030008A3030008A3030008F6
:1000C000A3030008A3030008A3030008A303000878
:1000D000A3030008A3030008A3030008A303000868
:1000E000F1260008A303000800000000A303000895
:1000F00071E70008A3030008A3030008A303000896
:10010000A3030008A3030008A3030008A303000837
:10011000A3030008A3030008A3030008A303000827
:10012000A3030008A3030008A3030008A303000817
:10013000A3030008A3030008A3030008A303000807
:1001400000000000000000000000000000000000AF
:10015000A3030008A3030008A3030008A3030008E7
:10016000A3030008A3030008A3030008A3030008D7
:10017000A3030008A9C50008A303000800000000AD
:10018000A3030008A3030008A3030008A3030008B7
:10019000A3030008A3030008A3030008A3030008A7
:1001A000A3030008A3030008A3030008A303000897
:1001B000A3030008A3030008A3030008A303000887
:1001C000A3030008A3030008A3030008A303000877
:1001D000A3030008A3030008A3030008A303000867
:1001E000A3030008A3030008A3030008A303000857
:1001F000A3030008A3030008A3030008A303000847
:10020000A3030008A3030008A3030008A303000836
:10021000A3030008A3030008A3030008A303000826
:10022000A3030008A3030008A303000800000000C4
:10023000A3030008A303000800000000A3030008B4
:10024000A3030008A3030008A3030008A3030008F6
:10025000A3030008A3030008A3030008A3030008E6
:10026000A3030008A3030008A3030008A3030008D6
:10027000A3030008A3030008A30300080000000074
:10028000A3030008A3030008A30300080000000064
:1002900000000000A303000800F002F800F065F879
:1002A0000AA090E8000C82448344AAF10107DA45D1
:1002B00001D100F05AF8AFF2090EBAE80F0013F0BE
:1002C000010F18BFFB1A43F001031847EC8002002E
:1002D0000C8102000A444FF0000C10F8013B13F0AF
:1002E000070408BF10F8014B1D1108BF10F8015B8F
:1002F000641E05D010F8016B641E01F8016BF9D182
:1003000013F0080F1EBF10F8014BAD1C0C1B09D1D8
:100310006D1E58BF01F801CBFAD505E014F8016B4A
:1003200001F8016B6D1EF9D59142D6D370470000DC
:100330000023002400250026103A28BF78C1FBD8EE
:10034000520728BF30C148BF0B6070471FB514F07B
:1003500051F89DE8030000F081F900F051F91FBD4C
:1003600010B5002000F0F0F910BD00F016FA1146AB
:10037000FFF7ECFF13F040FE00F034FA03B4FFF790
:10038000EFFF03BC00F0B8F909488047094800476F
:10039000FEE7FEE7FEE7FEE7FEE7FEE7FEE7FEE735
:1003A000FEE7FEE704480549054A064B7047000092
:1003B00081E6000899020008509D002450A1012404
:1003C000509D0124509D012470B5064600F02AF985
:1003D000056806F10B0020F00704B4429CBF002022
:1003E00070BD2B466A68BAB11068A04210D304F100
:1003F000080188423CBF5068586007D35168101903
:1004000041601168091B016058601460101D70BDC7
:1004100013465268002AE7D12146284600F00AF91F
:100420000028DED170BD70B50446051F00F0FAF853
:100430000068002C14BF446870BD002C18BFAC428B
:100440003CBF20466468F8D301680A18AA4218BF66
:10045000456003D12A6805461144016028684119A6
:10046000A1421CBF6C6070BD61686960216808446E
:10047000286070BD0B460146184600F025B910B53E
:10048000431C02E010F8011B71B18107FAD14FF053
:10049000013202C88C1A8C4314EAC211F9D0C01A76
:1004A0000A0603D0C01E10BDC01A10BD0A0401D038
:1004B000801E10BD0902FCD0401E10BD032A40F270
:1004C000308010F0030C00F0158011F8013BBCF1F6
:1004D000020F624498BF11F801CB00F8013B38BF0E
:1004E00011F8013BA2F1040298BF00F801CB38BF1C
:1004F00000F8013B11F0030300F02580083AC0F03A
:10050000088051F8043B083A51F804CBA0E80810E1
:10051000F5E7121D5CBF51F8043B40F8043BAFF314
:100520000080D20724BF11F8013B11F801CB48BF6E
:1005300011F8012B24BF00F8013B00F801CB48BFA4
:1005400000F8012B704710B5203AC0F00B80B1E8DD
:100550001850A0E81850B1E81850A0E81850203AF8
:10056000BFF4F5AF5FEA027C24BFB1E81850A0E801
:10057000185044BF18C918C0BDE810405FEA827C1B
:1005800024BF51F8043B40F8043B08BF7047D20732
:1005900028BF31F8023B48BF11F8012B28BF20F8D3
:1005A000023B48BF00F8012B70474FF0000200B536
:1005B000134694469646203922BFA0E80C50A0E886
:1005C0000C50B1F12001BFF4F7AF090728BFA0E834
:1005D0000C5048BF0CC05DF804EB890028BF40F800
:1005E000042B08BF704748BF20F8022B11F0804F42
:1005F00018BF00F8012B7047704770477047000024
:1006000070B5064C7C44064D7D4404E020460168EC
:1006100008448047241DAC42F8D170BDD07D020053
:10062000D47D020000487047F034002470477047C2
:100630007047704738B504460A4600206946AFF354
:100640000080002808BF38BD02460099204600F00F
:1006500061F8012038BD012000F097B8F8B5AFF37C
:100660000080054600200C46102000BF0646A81951
:10067000A0420DD9324669460020AFF30080070042
:1006800008BF00F082F80098A04218BF0546C419C0
:10069000FFF7C8FF05600746F01D20F00700461968
:1006A000284600F00AF8B44208BFF8BDA21B314644
:1006B0003868BDE8F84000F02DB800210160C0E9BD
:1006C00001107047102070472DE9F041074615468C
:1006D0000E461020FFF778FE04000AD06760C4E9D8
:1006E000026500F013F80168216004600020BDE895
:1006F000F0810120FBE7000001491820ABBEFEE7B6
:100700002600020000487047E83400240048704783
:1007100020350024034640688C46002818BF8842D4
:100720003CBF03464068F8D318681844884207D095
:100730000CF1030020F00700001D411A521A014677
:10074000081D0A60FFF76FBE2DE9F0410646FFF76E
:10075000DDFF8046454613E016B1E068B0420ED199
:1007600020682860D4E90101D8F800708847204645
:10077000FFF759FED8F80000B842EBD100E025465B
:100780002C68002CE8D1BDE8F08110B500F038F8F5
:10079000BDE8104000F02FB870477546FFF7B2FF74
:1007A000AE4605006946534620F00700854618B05E
:1007B00020B5FFF7F7FDBDE820404FF000064FF0F1
:1007C00000074FF000084FF0000BAC46ACE8C00942
:1007D000ACE8C009ACE8C009ACE8C00921F00701E9
:1007E0008D46704710B50446AFF300802046BDE843
:1007F0001040FFF7C3BD002801D0FFF77DBF704751
:1008000010B5012805D0002103A000F021F8012037
:1008100010BD09A1F8E7000053494752544D454D1A
:100820003A204F7574206F662068656170206D6591
:100830006D6F7279000000003A2048656170206D8C
:10084000656D6F727920636F727275707465640084
:1008500070B505460C460A2000E06D1C00F011F84A
:1008600035B128780028F8D102E0641C00F009F8BE
:1008700014B120780028F8D1BDE870400A20AFF309
:10088000008008B569468DF800000320ABBE08BDA6
:10089000B0B50446006842F2001140F48070C4F222
:1008A0000201884218D142F20830C4F20200006806
:1008B00010F4403F18D007F0DBFA61680546B1F547
:1008C000803F05D0B1F5403F2CD0B1F5003F2AD193
:1008D000080CB5FBF0F526E046F20830C5F602003C
:1008E000006810F4403FE6D14FF40020002106F0EC
:1008F0005BF961680546A1F580224FEAB2420A2AF7
:1009000011D8DFE802F007070707070751535557CB
:10091000590000BF6FF0010000EA5140B5FBF0F54F
:1009200001E000BFAD0804F0FBFC41F20301884286
:100930000ED8206842F60151C0F231118D42816813
:100940002CBF41F4807121F480718160B0BD00BF83
:100950004BF62140C0F2BE00854205D82068816870
:1009600021F440718160B0BD47F64100C0F27D10B6
:10097000854207D820680122816862F309218160DD
:10098000B0BD00BF20684FF28101C0F2FA218D4254
:10099000816805D8022262F309218160B0BD00BFE1
:1009A00041F440718160B0BD2D09BCE76D09BAE723
:1009B000AD09B8E7ED09B6E72D0AB4E7000000007D
:1009C0000146806B426D12F0500F426D06D0D20688
:1009D00010D4C06CC26C0846104700BF42F40071CE
:1009E000416501680A681207CA6805D4910717D0E3
:1009F00002F0E2BE02F0E8BE12F4406FF8D1C9681E
:100A00008904F5D4416D21F480714165416DC904BB
:100A1000EED4416D41F00101416502F0CDBE00BF51
:100A2000416D21F480714165416DC904E0D4416D8F
:100A300041F00101416502F0BFBE0000000000006E
:100A4000806B416D41F040014165816D41F00401D1
:100A5000816502F0B9BE0000806B02F0B1BE0000FB
:100A6000B0B501680446886880078A684FF00000C6
:100A700033D412F0010208BFB0BD886800F00D0049
:100A800001281FD14FF6C0728868C7F6FF72104068
:100A9000023088600320086004F04AFC21688968FD
:100AA000C90701D10020B0BD054602E08068C0073B
:100AB00012D004F03DFC401B03282068F6D3816867
:100AC000C907F3D0606D40F010006065A06D40F084
:100AD0000100A0650120B0BD0020B0BD00000000F5
:100AE000F0B581B0044600688168C90752D14FF65D
:100AF000C0778168C7F6FF7707F17F0211420BD0FC
:100B0000606D40F010006065A06D40F00100A065D0
:100B1000012001B0F0BD00BF8168394041F0010102
:100B2000816004F005FC42F2000246F20836C4F28D
:100B30000202216802F5807302F54275C5F60206CD
:100B4000994208BF2E4691420A4608BF2E46994256
:100B5000054604BF42F20002C4F2020230688A4233
:100B600018BF10F01F0015D10868C00712D188689F
:100B7000C00704D18868384040F00100886004F064
:100B8000D7FB401B21680328EED30868C007EBD1D0
:100B9000B6E700BF002001B0F0BD0000000000007B
:100BA0002DE9F04F81B043F284688346C2F20048D9
:100BB0004FF0FF3089461BF01005A8F8360098F872
:100BC00002004FF0010188F80D100BD10BF00F015E
:100BD00001294FF00F0118BF10F0100203D001B02F
:100BE000BDE8F08FEF210BF00F0A4AEA001408402D
:100BF000E7B288F80200812F4FF0020000F32E8048
:100C0000A7F11201362900F25580DFE801F02F53D9
:100C100053535353535353535353535353532F53C8
:100C20001D535353535353535353535353535353CA
:100C300053535353535353535353535353532F53A8
:100C40002D5353532D0000BF08F1140008F1180173
:100C500000F0D6FB064668B906E000BF822F05D03B
:100C6000842F01D0882F25D198F8040000F0D4FFFC
:100C70000646F8B198F8020002280FD0042809D0DF
:100C8000082840F0A28000F04BFD002088F8050005
:100C900088F80B0000F03CFD0DF0EAFA162E40F04B
:100CA000918009F0F5FE00F037FD012088F8020080
:100CB000162674E16FF01000002150FA84F0A8F8B5
:100CC0003810772800F2EC801326DFE810F09F0040
:100CD000D10068017900E900E900E9007900E90044
:100CE000E900E900E900E900E900E900E9003B0169
:100CF000A5007900EB00E900E900E9007900E900CE
:100D0000E900E900E900E900E900E900E900FF0085
:100D10007900E9007900E900E900E9007900E900DB
:100D2000E900E900E900E900E900E900E9002F0134
:100D300057017900A500E900E900E9000701E90091
:100D4000E900E900E900E900E900E900E900E9005B
:100D5000E900E900E900E900E900E900E900E9004B
:100D6000E900E900E900E900E900E900E900E9003B
:100D7000E900E900E900E900E900E900E900E9002B
:100D8000E900E900E900E900E900E900E900E9001B
:100D9000E900E900E900E900E900E900E900E9000B
:100DA000E900E900E900E900E900E900E9002101C2
:100DB000490179005F01E900E900E900A50000BFF1
:100DC0001126ECE0022088F80200FF2E40F0E780B8
:100DD0006FF01101012051FA84F188F80E00E0B2A1
:100DE0000229A8F83800C0F09A81482818BF2428A2
:100DF00006D142F2F620A8F8360001B0BDE8F08F27
:100E00009620A8F8360001B0BDE8F08F45F2AC108E
:100E10000021C2F20040017015B1384600F0E8FA36
:100E200098F80A0010B1FE26B9E000BF98F8020059
:100E300010F00C0FF7D0B8F81800002800F08C81E3
:100E40000DF102060020ADF8020040F61601022264
:100E5000304609F0F5F900BF40F61601022230468F
:100E600009F082F9BDF80200C005F5D4DBE700BF48
:100E70000020ADF802000DF1020040F20251022202
:100E800009F072F9BDF8020010F4C050B0FA80F019
:100E90004FEA501088F8000000F02C8151267EE0C7
:100EA00012267CE00CF068FF064650B9002088F856
:100EB0000D0008F11C0000F01FFC0646002800F0A1
:100EC0007D81FF2E40F00C8124201CE045F2AC1007
:100ED0001326C2F200400021017060E098F80A0079
:100EE000002800F02381B8F8326046B9002088F865
:100EF0000D0000F009FC0646002800F07F81FF2E5F
:100F000040F046814820012188F80E101BE100BF07
:100F100000F006FC0646002088F8050088F80B0063
:100F200088F80D0016B181244FE700BF00F0F0FBF8
:100F300006460DF09DF94FF0000088F80D000EB147
:100F4000412442E709F0A4FD00F0E6FB064645F225
:100F5000AC10C2F2004021240021017035E700BF2F
:100F600000F0DEFB0646002088F8050088F80B003C
:100F700088F80D0016B1822427E700BF00F0C8FBF7
:100F80000DF076F9002688F80D6008E000F0C8FB47
:100F9000002688F8056088F80B6088F80D6098F8DE
:100FA000020000F00F018A451AD10DF10204002061
:100FB00088F80E004FF49A71ADF802000222204624
:100FC00009F03EF998F802004FF49871ADF802006C
:100FD0000222204609F034F901B0BDE8F08F00BFCD
:100FE00056EA090142D040EA0B0000073ED598F8C6
:100FF0000B0030B100F094FB002088F8050088F861
:101000000B00B8F81800B8B10DF102054FF480706C
:10101000ADF8020040F616010222284609F010F948
:1010200040F616010222284609F09EF8BDF802009B
:10103000C005F5D51AE000BFB8F81400B0B10DF145
:1010400002054FF48070ADF8020040F61E01022246
:10105000284609F0F5F800BF40F61E010222284696
:1010600009F082F8BDF80200C005F5D546B198F840
:1010700002A0BAF1080F08BF4FF0040A04E000BF55
:10108000B9F1000F10D04E464FF6FF714AF0100034
:101090008E4288F802004FF0000288F80E20ADF86A
:1010A000026008D110E000BF88F802A0002088F894
:1010B0000E00ADF802000DF102004FF49A71022209
:1010C00009F0BEF898F80200ADF802000DF1020038
:1010D0004FF49871022209F0B3F801B0BDE8F08F27
:1010E00098F80D0008B900F013FB0DF0C1F82424A6
:1010F0006BE600BF09F08CFC064640B9002088F87A
:101100000D0000F0FDFA0646002800F07D80FF2E5D
:101110004AD1012088F80E001220A8F8380040F2C9
:101120009E70A8F8360001B0BDE8F08F98F807006F
:1011300028B1C820A8F830000020A8F83400012009
:1011400088F80E004820A8F8380042F2F620A8F8E7
:10115000360001B0BDE8F08FB8F8140000283FF465
:1011600062AE0DF102060020ADF8020040F61E014D
:101170000222304609F064F840F61E010222304691
:1011800008F0F2FFBDF80200C005F5D44BE600BF41
:1011900098F80D0008B900F0C3FA002088F805009F
:1011A00088F80B00482410E698F80D0008B900F004
:1011B000B3FA09F06DFC122407E600BF0DF1020638
:1011C000B8F81C404FF401710222304608F0CCFF01
:1011D000BDF802002043ADF80200072004F07CF9BE
:1011E0004FF401710222304609F02AF8072004F07A
:1011F00087F9012088F80C000026D0E6012088F845
:101200000B000026CBE600BF43F2C9600121C2F209
:101210000040002660E6000070B582B043F28464AE
:10122000C2F20044A07B002800F0C080E18E208F35
:1012300031B3A0F1120102293CD324285AD0482806
:1012400040F0B480607B002800F0B080E079002896
:101250007AD0B4F930000128C0F2A880B4F9341073
:10126000884200F3A38000202086A08600F04CFA7C
:10127000002800F08180FF2800F098806DE000BF1A
:10128000C0F30715A0F1120102292BD3242845D061
:10129000482823D1E079002866D0207A002873D02E
:1012A000208B61791B26002808BF1A26002918BF49
:1012B0001A266AE0607B002878D00020607300F076
:1012C0001FFAFF2872D0B8BB43F2C96094F83810F7
:1012D000C2F20040012201F00F0502700026002D2D
:1012E0005BD163E0607B08B900F016FA09F0D0FB2F
:1012F0001AE000BF607B002858D00020607304F122
:101300001C0000F0F9F998B3FF284FD000F000FA64
:1013100002B0BDE870400CF0ABBF00BF607B08B905
:1013200000F0F6F90CF0A4FFA07A668E002808BF42
:10133000012695BB3AE000BF00F0EEF902B0BDE82F
:10134000704009F0A5BB00BF208B08B1607968B37D
:1013500000F0DAF980B1FF2828D000F0E1F9002090
:101360006071E07202B070BD208B28B11B260CE0CA
:1013700004F10C00042502E004F10B000825012112
:1013800001700020A07313E02D26607B08B900F0E7
:10139000C7F900206071E07245B130044FF00000E1
:1013A000A07305D045F0100503E000BF02B070BD8A
:1013B0000026A0784FF6FF71ADF80660A842B0B2E3
:1013C00018BFA570884207D00DF106004FF49A713E
:1013D000022208F035FFA5780DF106004FF4987150
:1013E0000222ADF8065008F02BFF02B070BD0000DD
:1013F000704700000000000070470000000000007F
:101400002DE9F04F83B040F2100AC2F2004ACDE954
:101410000101BAF806208AB34FF0000B002705E05F
:10142000BAF806000BF1010B834528D20AEB4B00FA
:1014300000890AF06DFA00285CD085690646B5F887
:101440000080B8F1000FEBD0012031460AF0FCF823
:10145000C008B8F1010F285C0744E1D0012500BFA6
:1014600001353146E8B2B4690AF0EEF8A9B2C00815
:101470004145205C0744F3D3D2E700BF0027BAF808
:10148000000000283CD04FF0000B002506E000BF14
:10149000BAF800000BF1010B834537D20AEB4B0081
:1014A00040880AF035FAA8B3D0F818800646B8F894
:1014B0000040002CECD0012031460AF0C5F8C008ED
:1014C000012C18F800000544E2D04FF0010800BFDD
:1014D00008F1010831465FFA88F0D6F818900AF052
:1014E000B3F81FFA88F1C008A14219F800000544BA
:1014F000EED3CDE7252000270025DDE901630DE0CF
:1015000000200025DDE9016308E000BF0020DDE9DF
:10151000016303E000252420DDE90163072111FABE
:1015200087F211FA85F1C9083180D108198003B01A
:10153000BDE8F08F000000002DE9F04340F21001FB
:10154000C2F200410A88002A08BFBDE8F08343F2D6
:10155000AC720023C2F2004241F6012E02F11808DB
:1015600002F11C0992F800C01FE000BF5488192640
:1015700004801527948880F804C044804546546947
:10158000C0F80540546AC0F809401489A0F80D401D
:10159000D488A0F80F4011242D680551146AC45155
:1015A00030440C880133A3421CD201EB430464880D
:1015B0007445DBD0B4F5D05FF3D15488172604808E
:1015C0001327948880F804C044804D465469C0F8BD
:1015D0000540D488A0F809409469C0F80B400F2456
:1015E000DAE700BFBDE8F08380B540F21002C2F236
:1015F0000042B2F806E0BEF1000F08BF80BD43F222
:10160000AC7C0832C2F2004C05E000BFBEF1010E16
:1016100002F102026CD01388A3F5B053032BF5D866
:10162000DFE803F022324E020188ACF80A10B0F86D
:1016300003108378ACF80E10B0F805108CF8013068
:10164000ACF81010D0F80710CCF82810D0F80B1018
:10165000CCF82C10B0F80F10ACF80C10D0F811101A
:101660001530CCF83010D1E70188ACF80A10817839
:10167000D0F80330CCF828308CF80110B0F80710FF
:10168000ACF80C100930C1E70188ACF80A10B0F8CA
:1016900003108378ACF80E10D0F80510CCF82810A1
:1016A000D0F80910CCF82C10B0F80D108CF80130DF
:1016B000ACF80C10D0F80F10CCF830101330A5E7B0
:1016C0000188ACF80A10B0F803108378ACF8101059
:1016D000D0F80510CCF82810B0F809108CF80130BB
:1016E000ACF80C10D0F80B10CCF830100F308DE7A0
:1016F00080BD0000000000000020704700000000D6
:10170000002070470000000000207047000000002B
:10171000002070470000000000207047000000001B
:101720000020704700000000FEE7000000000000FD
:1017300000207047000000000020704700000000FB
:1017400010B545F2B01444F24471C2F20044C2F242
:101750000041002220460DF0B3FA43F644712046C2
:10176000C2F200410DF09CFA002010BD0000000004
:10177000B0B504460078523805280BD8012202FA89
:1017800000F010F0230F05D00868082802D1204689
:101790000FF076FB45F2B0152146C2F2004528460F
:1017A0000DF07EFA28460DF057FA0020B0BD00007B
:1017B00043F218610020C2F2004100220A70704713
:1017C00010B545F2B012C2F20042D2F8BC22D2F8F3
:1017D0001422002A1CBF012010BD45F2B0140A4695
:1017E000C2F20044014620460DF06AFA2046BDE8E8
:1017F00010400DF0F5BA0000B0B545F67C45C2F2D8
:101800000045286830B10021002408F095FF2046EB
:101810002C60B0BD4FF48070FEF7D6FD80B143F26E
:101820005071C2F200418A8982818A6882604A6866
:101830004260096801600BF007FD0020B0BD00BFE9
:101840000720B0BD0000000043F6D820C2F20040DF
:10185000006870470000000045F67C400021C2F29D
:101860000040016043F22A70C2F2004001807047DC
:101870002DE9F04F81B043F24475C2F200452C6867
:10188000002C51D043F2287843F22479C2F2004868
:10189000C2F2004943F23C7B43F2237A43F24077A1
:1018A000C2F2004BC2F2004AC2F20047B8F8000090
:1018B00099F800109AF80060DBF800203B68009669
:1018C000A047FF2830D043F222760446C2F20046F9
:1018D0003078C11E022915D301280FD0022817D154
:1018E00043F23870C2F20040006838B1FEF79BFD49
:1018F00043F238710020C2F200410860002100224A
:1019000003E000BFDBF800103A6820460BF0F8FD5A
:1019100000203070A8F8000089F80000CBF8000023
:1019200038608AF80000286001B0BDE8F08F000040
:1019300070B542F6940043F6D826C2F200404FF646
:10194000FF7CC2F200464FF0000E0189C6F800E0AD
:10195000614537D140F22C00C2F2004001890020DD
:10196000614508BF70BD40F22C03C2F2004307E09E
:10197000C3E900052B603360198E2833614557D0C9
:1019800035686DB12C898C42F2D84FD08C420BD87F
:101990006A689AB1148915468C42F7D146E000BFB7
:1019A000336018600CE000BF2968196029685D6029
:1019B000002918BF4B602B60DEE700BF6B601D6025
:1019C0005860D9E742F694030020C2F2004348B3BE
:1019D00002898A4204D9C3E900E00360336019E058
:1019E00024D000BF8A4207D844687CB122892046AF
:1019F0008A42F7D11AE000BF016819600168586097
:101A0000002918BF4B60036004E000BF436018600A
:101A1000C3F804E0198E61453FF49CAF2833306869
:101A20000028D5D13360C3F800E0F1E7012070BD94
:101A3000002070BD0000000070B545F600504AF26D
:101A40002013C2F200402021002444F21F02016052
:101A5000C0F20703C0E901448281C0E904348483F1
:101A6000046280F8404045F6BC40C2F20040C0E944
:101A7000001484608281C0E904348483046280F8A5
:101A8000404045F2AC10C2F200400470FFF750FF36
:101A9000002846D043F6D82CC2F2004CDCF80020D7
:101AA000E2B34FF0000E114602E000BF0022A9B3DE
:101AB000002A08464968F9D0008913461D898542E5
:101AC00016D05B68002BF2D01D89854210D05B6870
:101AD000002BECD01D8985420AD05B68002BE6D034
:101AE0001D89854204D05B68002BE7D1DFE700BF8A
:101AF0001A685D68002A18BF5560002D18BF2A605B
:101B0000C3F800E0DCF80020C3F804E01689864240
:101B1000CDD1CCF800502A46C9E700BF0020CCF850
:101B2000000043F22270C2F20040047043F22370BE
:101B3000C2F20040047043F22870C2F200400480F8
:101B400043F22470C2F20040047043F23C70C2F2CF
:101B50000040046043F24070C2F20040046043F26F
:101B60004470C2F20040046043F23870C2F2004098
:101B7000046070BD00000000C1884FF0FF3202EB2E
:101B80001132072A08D80421DFE802F0040A04040D
:101B90000404040C0846704705210846704700BF3E
:101BA0000AF09EBF0BF050BB10B582B043F28464C4
:101BB000C2F20044E08CC8B10020ADF806000DF17F
:101BC00006004FF48861022208F0CEFABDF8060044
:101BD000C0070BD1208B48B1E07A28B104201B212B
:101BE000FEF7DEFF02B010BD00206071E07928B181
:101BF000E07A18B1207A18B1607A38B102B010BD1D
:101C000004202C21FEF7CCFF02B010BD04201A21C5
:101C1000FEF7C6FF02B010BDF0B581B043F2846696
:101C200041F6FF72C2F20046718A914202D214203C
:101C300001B0F0BD06F13C0504464FF400610822F6
:101C4000284608F091FAF18FC80740F08580B78FD9
:101C5000F80740F08180B6F84200C00702D1162094
:101C600001B0F0BDB7F5805F4FF01600C0F0C18045
:101C70002239DE2900F2BD80B6F8401001F00E01D5
:101C8000062940F0B6800020B0EB573F20D0162741
:101C9000042C44D3002F42D10120707040F618016B
:101CA0000822284608F060FAF28FD00754D1B18F8D
:101CB000C80751D1B6F8420000F001000AB9002867
:101CC0005BD1B38A00284BD153EA020055D126E0FC
:101CD00040F608010822284608F046FAF28FD0079D
:101CE0003AD1B18FC80737D1B6F84200C007B6D095
:101CF000B1F5805F4FF016007BD3223ADE2A78D808
:101D0000B6F8402002F00E02022A72D141EA070022
:101D10001627B0F5005F38BF0027042CBAD2032C79
:101D200051D3002F4FD14FF401610822284608F00B
:101D30001BFAF28FD0070FD1B18FC8070CD1B6F8BC
:101D4000420000F001000AB9002859D1338BB8B91C
:101D500053EA020054D136E0172001B0F0BD00BFB5
:101D6000442A4FF01E0044D89A4242D1002B40D062
:101D7000B6F8402012F00C0F46D01E2001B0F0BD86
:101D8000442A4FF01D0034D89A4232D18BB3B6F8B2
:101D9000402002F00C00042832D1B07801F47043E6
:101DA000B3F5805F08BF022806D002284FF01D005F
:101DB0001FD0738B99421CD19007C2F38010F07032
:101DC00001D500207070BFB93079A042384610D9D3
:101DD000E0B20822C00000F50061284608F0C4F90E
:101DE000B6F8420001343082307984424FF000006E
:101DF000EED301B0F0BD00BF384601B0F0BD00BF6A
:101E00001D2001B0F0BD00BFB07801F47043B3F500
:101E1000805F08BF022806D002284FF01E00E8D0DD
:101E2000F38A9942E5D190077FF579AF0020707071
:101E300075E7000000000000222900F286800022E1
:101E4000DFE801F0841226368383838383838383D0
:101E50008383838383838383838383838383838352
:101E6000838383838383460043F29C6141F632423D
:101E7000C2F200419042098840D100293ED045F687
:101E80000050C2F20040808980075ED553E000BF59
:101E900041F63341884247D041F63241884254D11D
:101EA00045F60050C2F200408089400743D44CE020
:101EB00041F63341884241D041F63241884244D113
:101EC00045F60050C2F200408089000733D43CE060
:101ED00041F63341884238D145F6BC40C2F2004059
:101EE0008089800731D543F29C60C2F200400088AF
:101EF00000281CBF0020704727E000BF41F6334296
:101F0000904222D143F29860C2F200400088E0B1D2
:101F1000D9B945F6BC40C2F20040808910F00200F9
:101F20001CBF0020704710E045F6BC40C2F20040E4
:101F30008089400709D50020704700BF45F6BC40A6
:101F4000C2F2004080890007F5D412221046704783
:101F500043F28460C2F20040C17981B3028D418DA9
:101F6000531E9BB28B4223D3914201D20131418552
:101F7000C18D0122027221B1828D8A4218D2511C78
:101F8000818545F6005142F66442C2F20041C2F238
:101F900000420B8D1289934212D2B0F93010012900
:101FA0004FF0010141720ADB818E01318186704759
:101FB000417A00294FF00001017218BF4172704749
:101FC000427A002AFBD0B0F9303000224272012B55
:101FD0004FF0010381F84030B8BF704782867047E8
:101FE00043F24C50C2F2004001F0A6BE00000000D7
:101FF00040F20F42D0F800C0C4F20202944511DC56
:102000006F22C4F20202944522DC3F22C4F2020293
:10201000944539DC1022C4F2020294455AD0282299
:1020200054E000BF40F26F42C4F2020294451BDC50
:1020300040F23F42C4F2020294452DDC40F21042CD
:10204000C4F20202944545D040F228423EE000BF6F
:102050009F22C4F20202944528DC7022C4F20202DC
:10206000944537D0882231E040F29F42C4F2020208
:10207000944523DC40F27042C4F20202944529D018
:1020800040F2884222E000BF4022C4F2020294459E
:1020900020D058221AE000BF40F24042C4F20202AF
:1020A000944517D040F2584210E000BFA022C4F27D
:1020B000020294450ED0B82208E000BF40F2B842B8
:1020C000C4F20202944505D040F2A042C4F20202DA
:1020D000944519D16FF00F024AF6AB2352FA8CF2F5
:1020E000CAF6AA23A2FB03310AA35F2AC1F3021195
:1020F0005B5C40F2FF312CEA0101C36588BF04310B
:1021000081650846704700BF2CF0FF0181650846D5
:10211000704700BF000610160006101600000000F1
:1021200070B540F26F44D0F800C0C4F20204D0F899
:1021300058E0A4451ADC9F25C4F20205AC4533DC07
:102140005725C4F20205AC455ADC1025C4F202053D
:10215000AC4500F098802825C4F20205AC4500F09B
:1021600092804025C4F202058AE000BF45F22F4567
:10217000C5F60205AC452DDC40F2B745C4F20205B8
:10218000AC454BDC40F27045C4F20205AC457AD058
:1021900040F28845C4F20205AC4574D040F2A04537
:1021A000C4F202056CE000BF40F22745C4F202050C
:1021B000AC4543DCA025C4F20205AC4563D0B8258C
:1021C000C4F20205AC455ED040F21045C4F20205EF
:1021D00056E000BF45F26B45C5F60205AC453FDC55
:1021E00045F23045C5F60205AC454CD045F24445B4
:1021F000C5F60205AC4546D045F258453EE000BF65
:102200005825C4F20205AC453DD07025C4F2020544
:10221000AC4538D08825C4F2020531E040F2B8451B
:10222000C4F20205AC452ED045F20845C5F60205BC
:10223000AC4528D045F21C4520E000BF40F22845BF
:10224000C4F20205AC451ED040F24045C4F202057E
:10225000AC4518D040F25845C4F2020510E000BF6A
:1022600045F26C45C5F60205AC450CD045F29445E7
:10227000C5F60205AC4506D045F28045C5F6020517
:10228000AC4540F0D580456EC66E002E866E6E6001
:102290001CBFD0E91C566E60A44515DC9F24C4F217
:1022A0000204A4452CDC5724C4F20204A44551DCEA
:1022B0001024C4F20204A4457AD02824C4F20204F3
:1022C000A44575D040246FE045F22F44C5F60204C2
:1022D000A44529DC40F2B744C4F20204A44545DC1D
:1022E00040F27044C4F20204A44561D040F2884434
:1022F000C4F20204A4455BD040F2A04454E000BF05
:1023000040F22744C4F20204A4453FDCA024C4F2F6
:102310000204A4454CD0B824C4F20204A44547D01A
:1023200040F2104440E000BF45F26B44C5F60204A1
:10233000A44555DC45F23044C5F60204A44561D0FD
:1023400045F24444C5F60204A4455BD045F2584426
:1023500054E000BF5824C4F20204A44528D07024DD
:10236000C4F20204A44523D088241DE040F2B844FE
:10237000C4F20204A4451BD045F20844C5F6020489
:10238000A4453FD045F21C4438E000BF40F2284449
:10239000C4F20204A4450BD040F24044C4F202044B
:1023A000A44505D040F25844C4F20204A4453FD1EC
:1023B0008468C06D00F01F003F2505FA00F0CEF8DC
:1023C0000800DCF80000402C20F48020CCF800004D
:1023D000CCF8043023D0CCF80810CCF80C2070BD19
:1023E00045F26C44C5F60204A4450BD045F2804486
:1023F000C5F60204A44505D045F29444C5F602048E
:10240000A44515D1C46D806804F01F04012540283F
:1024100005FA04F4CEF80440CCF8043004D1CCF82A
:102420000820CCF80C1070BDCCF80810CCF80C20AB
:1024300070BD0000000000007047000000000000B8
:10244000B0B582B0C0000DF1060500F606044FF4E9
:102450008071ADF8061002222846214607F0F0FEF2
:1024600002222846214607F07FFEBDF80600C0057F
:10247000F6D502B0B0BD000045F60050C2F20040F3
:10248000406830B943F26070C2F2004041880131C7
:10249000418043F29260C2F20040007848B143F2BA
:1024A000BA60C2F20040B0F900100129A4BF01399E
:1024B0000180FFF74DBD00002DE9F04383B001AC72
:1024C0000421022220464FF00008ADF8048007F0F6
:1024D0004BFE43F284699DF80500C2F200490621D3
:1024E000022289F80400204607F03EFEBDF80400F1
:1024F00040F6FF710222ADF8068001EB8020A9F8BA
:1025000012000DF1060040F2025107F02DFEBDF859
:10251000060099F8041000F4C050B0FA80F04FEAB9
:10252000501089F80000E9B100264FF4807702AC22
:10253000F0B20222C000ADF8087000F60605204691
:10254000294607F07DFE00BF02222046294607F0FB
:102550000BFEBDF80800C005F6D599F80400013659
:102560008642E5D308F04CF80DF10A040120A9F8E1
:1025700002004FF49A710222204689F80E8089F8F1
:102580000580C9F82680A9F82A80C9F82C8089F826
:102590000780C9F80A80A9F83280A9F81C80A9F838
:1025A0001880A9F81480ADF80A8007F049FE99F860
:1025B00002004FF49871ADF80A000222204607F09D
:1025C0003FFEA9F8388089F80680FFF745F903B087
:1025D000BDE8F0830000000070B582B00020ADF8C7
:1025E00006000120ADF8040008F09AF943F2C9662C
:1025F000C2F20046307828B101A840F60E0102224E
:1026000007F0B2FD07F088FE43F284640546C2F28B
:102610000044E907A07B0FD070B90DF106004FF41C
:102620009071022207F0A0FD9DF80600002125F020
:102630001105FEF7B5FAA07BE9060FD570B9A078B1
:10264000C1060ED400F0EF0101290AD000F00F00FE
:10265000002125F01005FEF7A3FAA07B08B1FEF7D4
:10266000DBFD3078002840D0BDF80400C00705D15C
:10267000A078002100F00F00FEF792FAA8050DD512
:10268000002024F83A0F43F2D6600222C2F2004042
:102690000188204607F0D4FD07F0EAFF43F2C86442
:1026A000BDF80400C2F2004410F00201207800D00E
:1026B00008B1A1B998B108F01FF8207802220028CB
:1026C00018BF0120BDF8041021F4007141EA402038
:1026D000ADF8040001A840F60E0107F0B1FD07F0C7
:1026E0001BFEC00501D507F08BFE02B070BD0000D7
:1026F0004FF4805002F00CBD80B5022002F008FDBE
:10270000BDE8804009F058BF80B5042002F000FD0C
:10271000BDE880400BF018BE80B5082002F0F8FC40
:10272000BDE880400BF0CCBEB0B582B0C0000DF16A
:10273000060500F606040021ADF806100222284620
:10274000214607F07DFD00BF02222846214607F002
:102750000BFDBDF80600C005F6D402B0B0BD000008
:10276000EFF3108072B600BFFEE70000000000002B
:10277000B0B5B3F5804F034618D1002053F822C0FE
:10278000CCF6F0708D680CEA000C8C69D1E9000E73
:1027900040EA0C00C96840EA0E1040EA05202043D8
:1027A00040EA0141002043F82210B0BD6FF07041B3
:1027B000002043F82210B0BDB0B50A6850F82230AE
:1027C00023F0010340F82230D1E900EC8B684CEA99
:1027D0000302082BD1F80CC008BF42F04002D1E937
:1027E000043442EA0C02D1F818C01A43CB692243E0
:1027F0000C6A42EA0C02D1F824C01A438B6A2243C5
:10280000CC6A42EA0C02D1F830C01A434D6B224325
:102810008C6B42EA0C0250F82E302A4340F280457D
:10282000CFF6C07522432B401A4340F82E200A6B86
:10283000B2F5801F05D10A684AB1026842F48012DD
:1028400002600A681AB1496B0268114301600020F6
:10285000B0BD000000000000F0B500EB820340F2C4
:10286000000CCFF6F07C5A688E6802F0404E0D697D
:10287000D1E9002742EA0E02CC6842EA07124F690A
:1028800042EA06228E690CEB0555FE3742EA044205
:102890002A43324342EA07625A600268D2020BD5E9
:1028A0004268096922F4700243680CEB015111433C
:1028B00023F47002114341600020F0BD00000000CD
:1028C00070B50A68002A024600681DD020F4F8405E
:1028D00001F1080CD1E9073618434B6A304301F186
:1028E0000C0E1843106052F8040F47F6FF7320EAED
:1028F00003054E6801F1100001F1140301F1180401
:1029000045EA060114E000BF0E1D47F6FF73984329
:1029100001F1140C78CE034301F1180E1C4301F1B0
:102920001C00254301F1200301F1240445EA0601BE
:10293000DCF80060DEF800503143006829431B6872
:102940000843246840EA030100202143116070BD60
:102950000246406943F6FE7320EA0303002043EA7F
:10296000410151617047000010B5024600696FF3E4
:1029700015006FF01F04D1E900ECD1E9023140EA03
:102980000E0004EB431340EA0C000343002043EA2B
:102990004121116110BD00002DE9F043002A0246DB
:1029A00052F8083F2ED040F6FF724FF20006CFF6E5
:1029B0000F72CFF6FF761A40CB684F6906EB0333F0
:1029C0000026CFF6F0761A4306EB07573A438260AB
:1029D00050F80C2F8E68D1E900375D1E6FF00F03A1
:1029E00003EB071C6FF0FF030C6903EB062E0023BB
:1029F00002F07042CFF6FF7303EB044345EA020492
:102A0000024624E001F1080903F07048D1E90034DE
:102A100099E861026FF00F07013B07EB04146FF0B8
:102A2000FF0707EB00204FF20007CFF6FF7743EADE
:102A3000080307EB053C00270025CFF6FF77CFF60C
:102A4000F0751C4307EB064E044305EB09538869F8
:102A500044EA0C01471E41EA0E0040EA030100204F
:102A600041EA07611160BDE8F0830000000000004A
:102A700010B5C000082200F5006143F28460C2F284
:102A8000004000F13C04204607F06EFB204610BDDC
:102A900070B582B000230193044690F850000128DD
:102AA00002D1022002B070BD012084F850002046FF
:102AB00015460E46FDF7D4FF616D18B141F01001C7
:102AC0004CE000BF41F202124FF6C0739143C3F6CF
:102AD000FE7302316165216806F4803605F0804599
:102AE0008A682E4413404FF2FF72C2F2C35233443D
:102AF00003F100438B608B68B3F1FF3F2ADC019B3D
:102B000001330193019B93421DD88B68B3F1FF3FC2
:102B100020DC019B01330193019B934213D88B6806
:102B2000B3F1FF3F16DC019B01330193019B9342FC
:102B300009D88B68B3F1FF3F0CDC019B0133019393
:102B4000019B9342D7D9606D40F0100020F0020144
:102B5000012003E0616D012262F301016165002142
:102B600084F8501002B070BD006881688268D20895
:102B700042EA9101C9070BD14FF6FF72C168C7F64F
:102B8000DF72114001F10041C1600020704700BFB9
:102B900001207047000000002DE9F04181B00022C3
:102BA000009290F85020012A06D14FF0020E704694
:102BB00001B0BDE8F08100BFC268002A4FF00102F9
:102BC00080F8502002D00E6A012E19D14A68092AD5
:102BD0003DD10A684FF478568B6A06EA524223B117
:102BE00003F07C03CE6A33431A43036844F20005C2
:102BF000C0F21045DE6C2E401643DE64C26526E04E
:102C0000056E1DB1C36D00220AE000BF8B6A721E03
:102C100023B103F07C031A43CB6A1A4300233546E1
:102C2000D1E9006404F01F04C6F38466A640324371
:102C30006E1E42EA0302C0E9172608D1036844F277
:102C40000005C0F21045DE6C2E403243DA640368A2
:102C50004FF6FF7CC0F20F0C9A68120724D40A6862
:102C600012EA0C0F92FAA2F6B6FA86F608BF960E92
:102C700006F01F02012606FA02F2DE693243DA612B
:102C800091F82520DE6891F82650002A26F440129B
:102C90004FEA455602D0324305E000BF91F8245078
:102CA000324342EA0552DA609A689E68F60846EABC
:102CB0009202D20716D18A6AC2B1CA6AB2B191F839
:102CC0002520012A1AD1426D4FF0010E42F0200258
:102CD000426591F83020012A1A691AD022F00202C6
:102CE00027E000BF4FF0000EDEE000BF91F8252086
:102CF000012ADA6803D142F0007202E0DA6822F0B9
:102D000000724FF0000EDA6091F83020012A1A6943
:102D1000E4D14FF61D640026CFF60044CFF6FF76CF
:102D20002240D1E90D452A4306EB0444224342F0F8
:102D300002021A6107260A688D68C2F34064C2F372
:102D4000045203EB84049640676905FA02F227EA0D
:102D500006063243626141F20002C5F60042126883
:102D600002F07042B2F1805F08D14A69DC680E253A
:102D700005EA54040D69042D0CD12CE0DC684A6985
:102D8000DD68E4064FEA550420D404F00E040D6912
:102D9000042D20D003F16006A2400C6856F825707F
:102DA00004F0F84407F0004722433A4346F8252050
:102DB0000A690C7F012C56F8225025F0004508BF07
:102DC00005F1004546F822506EE000BF04F008040B
:102DD0000D69042DDED11A6E1F6E0A6812EA0C0806
:102DE00092FAA2F6B6FA86F4C2F38465264608BFC4
:102DF0002E46C7F38467B7420FD11C6E02F0F8422B
:102E000004F0004422441A660A6802EA0C08C2F37D
:102E1000846592FAA2F4B4FA84F45E6E27465E6E7C
:102E2000B8F1000F08BF2F46C6F38466BE420FD12B
:102E30005C6E02F0F84204F0004422445A660A68CC
:102E400002EA0C08C2F3846592FAA2F4B4FA84F49C
:102E50009E6E27469E6EB8F1000F08BF2F46C6F340
:102E60008466BE420FD1DC6E02F0F84204F00044EA
:102E70002244DA660A6802EA0C08C2F3846592FA10
:102E8000A2F4B4FA84F4DE6EB8F1000FDE6E08BF6F
:102E90002C46C6F38465A54206D1DC6E02F0F842EA
:102EA00004F000442244DA669A68D20740F0AF800A
:102EB000CD680A6805F0180702EA0C042CFA07F737
:102EC00040F2000CD3F8C060C4F2FF7CA643174068
:102ED000654547EA0607C3F8C0703AD194B192FA43
:102EE000A2F2B2FA82F2013202F01E0702F01F02D1
:102EF000092F10D8012702EB420607FA02F242EA34
:102F0000065215E0012707EB926202F01E0702F05D
:102F10001F020A2FEED3012702EB420607FA02F244
:102F20000027CFF6206707EB06573A4342F00072BE
:102F3000C2F340670725C2F304528E6803EB87078C
:102F400095407C6906FA02F224EA05052A437A6173
:102F50000A68B2F1FF3F5ADC42F2001743F4807175
:102F6000C4F2020742F20006B942C4F202063DD1A1
:102F7000B168D6F808713943C90742D146F208341E
:102F800006F58077C5F6020406F542752146BB4278
:102F900008BF2946B34240F2000708BF2946CCF6D5
:102FA00084370D68BA4205F0E07608BF15F40001D9
:102FB00034D00021CCF252718A4208BF15F08071E2
:102FC00048D0A4F542718B4221D10021CCF6B871D2
:102FD0008A4208BF15F4800119D1216821F0E071FF
:102FE000314341F48001216011E000BF4FF60051F0
:102FF00046F20837CFF6FF71C5F602077958C907C0
:10300000BCD0416D4FF0010E41F02001416500211F
:1030100080F85010704601B0BDE8F081A4F542710F
:103020008B42F4D1216842F6635221F0E071C0F284
:103030003E52314341F40001216040F20801C2F2E6
:10304000004109688909A1FB02129109022202EBE1
:1030500041010DE0A4F542718B42D8D1216821F0E5
:10306000E071314341F080712160D0E7009901396E
:10307000009100990029CAD0009901390091009966
:103080000029C4D0009901390091009900291FBF7F
:10309000009901390091009918BF0029B7D0E5E7E0
:1030A00040F20F1291420DD040F2152291420DD004
:1030B00040F21B320068914214BF80308C300068AF
:1030C000704700BF0068843000687047006888302F
:1030D00000687047000000002DE9F04F81B042F217
:1030E00000078346C4F2020746F2083307F58079E9
:1030F00007F54270DBF80020C5F602034A454FF0A1
:10310000200408BF0346BA420D4608BF0346DBF859
:103110001080B8F1080FD3F800A008BF402402F0D7
:1031200007F9DBF800100A68224235D10646681C10
:1031300029D075B902F0FCF8DBF8001008682042CD
:1031400011D008682042F5D026E000BF0868204270
:1031500022D102F0EDF8801BDBF80010A842F5D96F
:1031600008682042F2D1DBF8540040F00400CBF8AC
:10317000540000208BF85000032001B0BDE8F08F10
:103180000868204208D10868204205D1086820421A
:1031900004BF08682042F3D049450AF01F0018BF59
:1031A0000F460AF01E028F4218BF3F46002808BF94
:1031B0000F46062A08BF0F46CB6CCA68F868DBF8D2
:1031C000547013F4C07F47F40053CBF8543008D048
:1031D00002F4406200F000731A4400F40053D21865
:1031E00015D182020A6812D412F040020FD0DBF827
:1031F000542022F48052CBF85420DBF85420D2051E
:1032000005D4DBF8542042F00102CBF85420B8F189
:10321000080F03D1400403D4602000E020200860A0
:10322000002001B0BDE8F08FF0B581B042F200059A
:1032300046F20832C4F202050446006805F58076BD
:1032400005F54271C5F60202B04208BF0A46A8421F
:1032500008BF0A4617688168090711D4C1680029A8
:10326000C06C09D410F4C07006D1606D40F020002D
:103270006065012001B0F0BD94F85000012803D131
:10328000022001B0F0BD00BF012084F850002046AC
:10329000FDF726FC20B1002184F8501001B0F0BDEC
:1032A000606DC00507F01F0002D4002103E000BFDD
:1032B000A16D21F00801A16543F20102616D914306
:1032C00001F5805161652168B14218BF0D460028A3
:1032D00018BF8D4203D1626D22F4801262658D4267
:1032E0004FF060020A604FF0000284F8502007D0CF
:1032F000072811D8012202FA00F010F0C10F0BD0FC
:10330000C86880010CD44FF6C0728868C7F6FF7297
:1033100010400830886003E0606D40F48010606504
:10332000002001B0F0BD0000B0B582B090F8502090
:10333000012A03D10221084602B0B0BD42F2083290
:1033400000230193C4F202020093A2F542740368C1
:10335000A34227D14FF6006C4FF60055CFF6FF7C05
:10336000CFF6FF7552F80C40535923435B0719D42D
:10337000D1F800E01368BEF1000F23F440441DD0E3
:103380004B6823431360535952F80C502B43DB070F
:1033900022D1136840F61F758968AB4341EA0E01DC
:1033A000194316E0416D41F02001416501210022E1
:1033B00080F85020084602B0B0BD00BF14605159DB
:1033C00052F80C301943C90708D1116840F61F7331
:1033D000994311600021EAE70021E8E70021E6E7D0
:1033E0002DE9F04181B00022009290F85020012A8E
:1033F00004D10221084601B0BDE8F081076801232D
:1034000080F85030BC68640700F176810C682503B1
:1034100094FAA4F2B2FA82F208BFA20EC4F3846452
:103420004D6802F01F02C5F3012603FA02F2FB69A0
:103430001A43FA6107EB860205F01F031F26156B7E
:103440009E4025EA060604FA03F333431363BA6881
:10345000BB68DB0843EA9202D20740F07E800A682C
:1034600007258E68C2F34063C2F3045207EB83035F
:1034700095405C6906FA02F224EA05052A435A617E
:1034800041F20002C5F60042126802F07042B2F149
:10349000805F09D1D1F814C0FA680E2303EA520400
:1034A0000B69042B0DD13CE0FA68D1F814C0FB681D
:1034B000D2064FEA53032FD403F00E040B69042BFA
:1034C0002FD007F160020D680CFA04F605F0F845FC
:1034D00052F823402E4304F00044264342F8236070
:1034E0000B694E7E52F82350012E25F0004508BF8F
:1034F00005F1004542F823500A7E0B693E69013A06
:1035000003F01F03B2FA82F226F4F0465209D20207
:103510009A4032433A6120E003F008040B69042B1F
:10352000CFD13A6E0B6802F0F842B2EB836F4FEAEC
:10353000836345D07A6E02F0F8429A4249D0BA6E5F
:1035400002F0F8429A424DD0FA6E02F0F8429A42E6
:1035500003D1FA6E22F00042FA66BA68D2072DD182
:103560004FF6FF72CE68C0F20F02D1F8008006F06D
:10357000180308EA0204DA400023D7F8C050C4F266
:10358000FF73A54302EA08029E4242EA0502C7F819
:10359000C02058D184B398FAA8F2B2FA82F201326C
:1035A00002F01E03092B02F01F032ED8012203EBA9
:1035B00043069A4042EA065333E000BF0021A0E0F0
:1035C0003A6E22F000423A667A6E02F0F8429A426F
:1035D000B5D17A6E22F000427A66BA6E02F0F842F5
:1035E0009A42B1D1BA6E22F00042BA66FA6E02F087
:1035F000F8429A42ADD0B0E7012202EB986202F0A5
:103600001E030A2B02F01F03D0D3012203EB430653
:103610009A400023CFF6206303EB06531A4342F08F
:103620000073C3F340620725C3F304538E6807EBAE
:1036300082029D40546906FA03F324EA05052B43F0
:103640005361D1F80080B8F1FF3F01DD002158E05F
:1036500042F2000146F2083CC4F20201C5F6020C37
:1036600001F5807201F542739742624608BF1A461F
:103670008F4242F2001608BF1A4647F48073C4F224
:103680000206B342D2F800E02ED18A68D1F80811C0
:103690001143C90730D100210EF0E074CCF684311B
:1036A000884508BF1EF4000132D00021CCF25271CF
:1036B000884508BF1EF0807130D0ACF542718F4252
:1036C0004FF000011DD10022CCF6B872904508BF22
:1036D0001EF4800215D1DCF8001021F0E0712143C6
:1036E00041F480015BE000BF4FF60051CFF6FF715F
:1036F0005CF80110C907CED0416D41F02001416551
:103700000121002280F85020084601B0BDE8F08178
:10371000ACF542718F4207D00021F2E7ACF542715F
:103720008F4235D00021ECE7DCF8001042F66352FE
:1037300021F0E071C0F23E52214341F40001CCF887
:10374000001040F20801C2F2004109688909A1FB9A
:1037500002129109022202EB41010091009919B372
:10376000009901390091009901B300990139009144
:103770000099E9B10099013900910099D1B10099FE
:1037800001390091009900294FF00001E8D1B8E714
:10379000DCF8001021F0E071214341F08071CCF899
:1037A00000100021ADE700BF0021AAE70021A8E733
:1037B0000021A6E70021A4E77047000000000000F8
:1037C000704700000000000070470000000000008B
:1037D000B0B582B0044600284FF00000019009D037
:1037E000606D58B120688168890012D48168C90071
:1037F00019D54EE00125284602B0B0BD204600F0A4
:1038000027F90020A06584F85000206881688900AD
:10381000ECD54FF6C0728168C5F6FF721140816029
:103820008168C90035D44FF6C0718268C5F6FF7152
:1038300001F18051114042F6635201F180518160E3
:1038400040F20801C0F23E52C2F200410968890903
:10385000A1FB0212012101EB921101910199C1B169
:10386000019901390191019900291FBF019901397D
:10387000019101991FBF00290199013901911CBFD4
:103880000199002905D00199013901910199002977
:10389000E6D18168C90009D4616D012541F01001AC
:1038A0006165A16D41F00101A16500E0002581681D
:1038B000626D02F01002C1F380018918616D07D0BA
:1038C00041F0100001256065284602B0B0BD00BF80
:1038D00021F48171023161658168C90728D142F202
:1038E000001240F48071C4F20202914242F20001DF
:1038F000C4F2020140F0A0808A68D1F808311A436E
:10390000D20715D101F5807201F5427346F2080C19
:103910009042C5F6020C1A4618BF0CF54072884258
:1039200008BF1A466068116821F47C1108431060D2
:1039300001F0F6FC617D41F20402A36890424FEA77
:103940004131226B0AD3102B08D1207F114341EA69
:10395000004141F01C01012807D00DE0207F1143F8
:10396000194341EA0041012806D1206A0022CFF61E
:10397000FE7202EB40400143606A28B100F47870A7
:10398000A26A084340EA020120684CF20303CFF622
:10399000F073C2681A401143C16081688268D2081E
:1039A00042EA9101C90733D1217D44F2030CE26A56
:1039B000C36842EA813123EA0C021143C16094F8E2
:1039C00038100129016917D14FF61E02CFF60042C7
:1039D00001EA020C0021D4E90F23CFF6FF7101EBBD
:1039E00002414CEA0302636C1143A26C1943114378
:1039F00041F0010102E000BF21F001010161016914
:103A0000626B21F07041114301612046FCF740FFD9
:103A10002068E1680129026B22F00F0102D1A2693E
:103A2000013A114301630121606D61F3010060659A
:103A3000284602B0B0BD00BF46F20802C5F6020239
:103A40001268D2073FF45EAF72E70000000000008A
:103A500070B586B046F2000204460068C5F6020260
:103A600000219042CDE9041103910291019175D09A
:103A700042F20011C4F20201884200F0958042F245
:103A80000001C4F20201884240F08C8043F24855A4
:103A900044F2E040C2F20045C5F602002968002960
:103AA00001F1010129600BD150F8081C41F02001FF
:103AB00040F8081C50F8081C01F020010091009902
:103AC0000168002641F004010160016801F0040171
:103AD00000910099016841F001010160006801A9AD
:103AE00000F0010000900098122001900320029045
:103AF0000020C5F60200039600F5006001F014FBFB
:103B00004FF000704FF0007105F06AFA284610215E
:103B1000C4F2020140F8041F0921C0E90116C66081
:103B20004FF4806101614FF4805141614FF4804155
:103B300081614FF48071C0E90716042141620121BF
:103B40000663C0E90A1600F013FD08B1FEF708FE8F
:103B5000281DE064EC6306B070BD00BF44F2E04095
:103B6000C5F60200026842F080720260026802F04C
:103B700080720092009A026842F02002026000689F
:103B800000F02000009000984FF400700190032096
:103B900002900020C5F60200039100F5A05001A993
:103BA00001F0C2FA06B070BD43F2485144F2E04061
:103BB000C2F20041C5F602000A68002A02F10102C1
:103BC0000A600BD150F8081C41F0200140F8081C95
:103BD00050F8081C01F0200100910099016841F0A3
:103BE00001010160006801A900F001000090009847
:103BF0004020019003200290002003900020C5F691
:103C0000020001F091FA06B070BD00000000000053
:103C10002DE9F04381B042F2000746F20836C4F2C3
:103C200002070446036807F5807507F54270C5F67C
:103C30000206AB4208BF0646BB4208BF06463068D4
:103C40009B685B0704D4894694F85010012903D17E
:103C5000022001B0BDE8F08300F01F060120092E0C
:103C600084F850005ED8B04040F22121084259D07B
:103C700020469046FCF734FF30B1002184F8501004
:103C800001B0BDE8F08300BF2168606D40F60172AD
:103C9000A94220EA020018BF0F46002E00F58070EE
:103CA000606518BF8F4203D1606D20F4801060659D
:103CB000606D40F6C113C0044FF0000044BFA06D1A
:103CC00020F0060040F65927C0F60003A065C0F6B4
:103CD0000007E06C0022C0E90F3740F64123E76A95
:103CE000C0F60003C3641C230B6084F850204346D5
:103CF0004A6842F010024A60CA6822F003023A435E
:103D0000CA6040314A4600F077FF21684FF6C07321
:103D1000C7F6FF738A681A4004328A6001B0BDE8B2
:103D2000F08300BF002084F85000012001B0BDE8FE
:103D3000F0830000000000002DE9F04782B0002170
:103D4000019140F208010446C2F2004148F2B51266
:103D5000C1F64E32A56D096840F26F490068C4F2A1
:103D60000209A1FB021848452E68296816DC9F212C
:103D7000C4F2020188422DDC5721C4F202018842BC
:103D800052DC1021C4F2020188427BD02821C4F207
:103D90000201884276D0402170E000BF45F22F42F8
:103DA000C5F60202904229DC40F2B742C4F2020298
:103DB000904245DC40F27041C4F20201884261D079
:103DC00040F28841C4F2020188425BD040F2A04137
:103DD00054E000BF40F22741C4F2020188423FDCB8
:103DE000A021C4F2020188424CD0B821C4F20201E1
:103DF000884247D040F2104140E000BF45F26B429C
:103E0000C5F60202904275DC45F23042C5F6020268
:103E1000904200F0818045F24442C5F60202904291
:103E20007AD045F2584273E05821C4F20201884228
:103E300028D07021C4F20201884223D088211DE0DD
:103E400040F2B842C4F2020290421BD045F208424E
:103E5000C5F6020290425FD045F21C4258E000BF16
:103E600040F22841C4F2020188420BD040F24041A6
:103E7000C4F20201884205D040F25841C4F2020166
:103E8000884261D1E16D082201F01F0140F20F4A22
:103E90008A40C4F2020A324200F0E98050454FF0F5
:103EA000040313DC6F27C4F20207B8426CDC3F271F
:103EB000C4F20207B84200F3A7801027C4F2020739
:103EC000B84200F0C8802827C0E000BF484567DC42
:103ED00040F23F47C4F20207B84200F39D8040F22F
:103EE0001047C4F20207B84200F0B58040F22847FC
:103EF000ACE000BF45F26C42C5F6020290420BD026
:103F000045F28042C5F60202904205D045F2944245
:103F1000C5F60202904217D10268E36D570703F01D
:103F20001F0315D504279F4017EA010610D011047E
:103F30006F6045D4910603D4016821F0040101604B
:103F4000216C002940F0F68202B0BDE8F08700BF86
:103F500097073DD502279F4017EA010638D0110484
:103F60006F6000F1ED82910609D4016821F00A0129
:103F70000160012084F83500002084F83400E16BF2
:103F8000002940F0D782DFE79F27C4F20207B8423A
:103F90004CDC7027C4F20207B8425CD0882755E099
:103FA00040F29F47C4F20207B84247DC40F2704734
:103FB000C4F20207B8424ED040F2884746E000BF44
:103FC000D00300F1C382A16C002940F0B382BBE7AB
:103FD0001207B9D508229A401140B5D0016821F0E6
:103FE0000E010160012000FA03F16960606584F848
:103FF00035000020E16C84F834000029A4D020466C
:10400000884702B0BDE8F0874027C4F20207B842F3
:1040100021D058271AE000BF40F24047C4F20207FF
:10402000B84218D040F2584710E000BFA027C4F2B1
:104030000207B8420FD0B82708E000BF40F2A047FF
:10404000C4F20207B84206D040F2B847C4F20207F1
:10405000B84218BF082307681F4208D0036823F03E
:1040600004030360AA60626D42F0010262650122EE
:104070008A4032426FD0504510DC6F23C4F20203F5
:1040800098421DDC3F23C4F20203984234DC102323
:10409000C4F20203984256D028234FE048451BDC67
:1040A00040F23F43C4F2020398422DDC40F2104339
:1040B000C4F20203984246D040F228433EE000BFDB
:1040C0009F23C4F20203984228DC7023C4F2020347
:1040D000984238D0882331E040F29F43C4F2020373
:1040E000984223DC40F27043C4F2020398422AD083
:1040F00040F2884322E000BF4023C4F2020398420A
:1041000021D058231AE000BF40F24043C4F202031A
:10411000984218D040F2584310E000BFA023C4F2E8
:10412000020398420FD0B82308E000BF40F2A0433A
:10413000C4F20203984206D040F2B843C4F202032C
:10414000984240F00B8243691B0604D5AA60626D59
:1041500042F00202626504228A4032426FD050452A
:1041600010DC6F23C4F2020398421DDC3F23C4F22B
:104170000203984234DC1023C4F20203984256D062
:1041800028234FE048451BDC40F23F43C4F20203C2
:1041900098422DDC40F21043C4F20203984246D00C
:1041A00040F228433EE000BF9F23C4F2020398423E
:1041B00028DC7023C4F20203984238D0882331E00F
:1041C00040F29F43C4F20203984223DC40F2704362
:1041D000C4F2020398422AD040F2884322E000BF92
:1041E0004023C4F20203984221D058231AE000BFB2
:1041F00040F24043C4F20203984218D040F25843C0
:1042000010E000BFA023C4F2020398420FD0B823ED
:1042100008E000BF40F2A043C4F20203984206D077
:1042200040F2B843C4F20203984240F09F81036811
:104230009B0704D5AA60626D42F0040262651022F9
:1042400002FA01F1314200F0818050454FF008023E
:1042500010DC6F23C4F2020398421DDC3F23C4F23A
:104260000203984234DC1023C4F20203984256D071
:1042700028234FE048451BDC40F23F43C4F20203D1
:1042800098422DDC40F21043C4F20203984246D01B
:1042900040F228433EE000BF9F23C4F2020398424D
:1042A00028DC7023C4F20203984238D0882331E01E
:1042B00040F29F43C4F20203984223DC40F2704371
:1042C000C4F2020398422AD040F2884322E000BFA1
:1042D0004023C4F20203984221D058231AE000BFC1
:1042E00040F24043C4F20203984218D040F25843CF
:1042F00010E000BFA023C4F2020398420FD0B823FD
:1043000008E000BF40F2A043C4F20203984206D086
:1043100040F2B843C4F20203984218BF0422036873
:10432000134213D0A96001684903016808D4C90584
:1043300008D4016821F008010160216C21B905E071
:1043400008034FD4216C09B120468847E06D00F086
:104350001F01202000FA01F2324200F0AB802068F9
:104360001023504510DC6F27C4F20207B8421DDC51
:104370003F27C4F20207B84238DC1027C4F2020714
:10438000B8425AD0282753E048451BDC40F23F474B
:10439000C4F20207B84231DC40F21047C4F202070F
:1043A000B8424AD040F2284742E000BF9F27C4F2FB
:1043B0000207B8422CDC7027C4F20207B8423CD096
:1043C000882735E040F29F47C4F20207B84227DC55
:1043D00040F27047C4F20207B8422ED040F288473C
:1043E00026E000BFA16C0029AED1AFE74027C4F2A0
:1043F0000207B84221D058271AE000BF40F24047D8
:10440000C4F20207B84218D040F2584710E000BF8B
:10441000A027C4F20207B8420FD0B82708E000BFB7
:1044200040F2A047C4F20207B84206D040F2B847B3
:10443000C4F20207B84218BF022307681F4239D0EE
:10444000AA6094F83520042A02681BD122F01602D3
:104450000260426922F080024261226C0AB9A26CB9
:104460001AB1026822F0080202603F208840A8606A
:10447000012084F83500216D0020002984F83400E3
:1044800058D161E5510301680CD4C9050ED4016807
:1044900021F010010160012084F83500002084F82B
:1044A000340003E0080301D4616C00E0E16B09B162
:1044B00020468847606D00283FF446AD606DC00718
:1044C00034D0042084F8350020684FEA982102682F
:1044D00022F001020260019A013201928A421AD846
:1044E0000268D20717D0019A013201928A4212D88B
:1044F0000268D2070FD0019A013201928A420AD88B
:104500000268D20707D0019A013201928A4202D88A
:104510000268D207DFD10068C0074FF0030008BF70
:10452000012084F83500002084F83400E16C002973
:104530003FF40AAD2046884702B0BDE8F08700BFCF
:10454000D00307D4616C0029F4D1FDE4216C00296B
:10455000F0D1F9E4E16B0029ECD1F5E40268042222
:104560008A4032427FF4FBAD69E600BF026866E62E
:10457000F0B581B0044600F0DBFE002C00F017819E
:1045800040F26F4705462068C4F20207B84217DCC4
:104590009F21C4F2020188422EDC5721C4F202019D
:1045A000884255DC1021C4F20201884200F07F806D
:1045B0002821C4F20201884279D0402172E000BF74
:1045C00045F22F41C5F60201884229DC40F2B7418D
:1045D000C4F20201884247DC40F27041C4F2020199
:1045E000884264D040F28841C4F2020188425ED021
:1045F00040F2A04156E000BF40F22741C4F2020160
:10460000884241DCA021C4F2020188424FD0B82187
:10461000C4F2020188424AD040F2104142E000BF99
:1046200045F26B41C5F60201884200F3C38045F2B2
:104630003041C5F60201884200F0CF8045F2444186
:10464000C5F60201884200F0C88045F25841BFE03B
:104650005821C4F20201884229D07021C4F202011B
:10466000884224D088211DE040F2B841C4F2020102
:1046700088421CD045F20841C5F60201884200F08C
:10468000AC8045F21C41A3E040F22841C4F2020193
:1046900088420CD040F24041C4F20201884206D068
:1046A00040F25841C4F20201884240F0A182022146
:1046B00084F83510002184F83410016821F00101DC
:1046C00001600168C90709D000F032FE401B0528CF
:1046D00000F2688020680168C907F5D148F23F02FE
:1046E00004F108060168CFF6106211406CCE114348
:1046F000A2691943E3692943256A0E43616A164397
:10470000042943EA060343EA050303D1D4E90B6510
:1047100033432B4341F20006C5F600463668B6F136
:10472000005F1DD36668A6F12905292D18D8DFE89A
:1047300005F015151515151517171717171717174E
:104740001717171717171717151515151717171701
:1047500015151717171717171515151543F4801387
:1047600003600429436923F0070341EA030140F091
:10477000F180D4E90A53002B41EA050100F0EA80F8
:10478000B2F5005F00F0CC80002A40F0D580022D09
:1047900000F0D580012D00F0C980002D00F0CF8001
:1047A000D8E000BF20206065032084F83500012098
:1047B00001B0F0BD45F26C41C5F6020188420CD053
:1047C00045F28041C5F60201884206D045F2944187
:1047D000C5F60201884240F00B82022184F83510B0
:1047E000002184F834100168A268A2F18003E66811
:1047F000B3FA83F3402A4FEA53134FEA83336FF33C
:10480000101108BF1023226941EAD60166691943D5
:10481000A36941EAD201E26941EAD60141EAD30142
:104820004CF6CD4341EAD2014AF6F832CAF2FD72A3
:10483000266A0244CCF6CC43A2FB032341EA1611BC
:1048400001606FF0030000EA9300E0652046FDF789
:10485000CFFBE16D012201F01F0102FA01F141607D
:104860002068B84240F3858045F22F41C5F6020129
:10487000884217DC40F2B741C4F20201884229DCC9
:1048800040F27041C4F20201884200F0BC8040F264
:104890008841C4F20201884200F0B58040F2A04194
:1048A000ACE000BF45F26B41C5F60201884223DC53
:1048B00045F23041C5F60201884200F0A48045F27D
:1048C0004441C5F60201884200F09D8045F25841FE
:1048D00022E000BF40F2B841C4F20201884200F079
:1048E000928045F20841C5F60201884200F08B80B3
:1048F00045F21C4110E000BF45F26C41C5F60201D3
:10490000884200F0808045F29441C5F60201884259
:1049100000F0798045F28041C5F6020170E000BFE9
:10492000032D17D8DFE805F00E0B0E02A3F1C072BD
:10493000B2FA82F2520904E0032D03D30AD1C3F381
:1049400000623AB140206065012084F8350001B072
:10495000F0BD00BF41612046FDF74AFBE16D3F22FB
:1049600001F01F0102FA01F181602068B8423FF7AF
:104970007BAF9F21C4F20201884211DC5721C4F2AF
:104980000201884220DC1021C4F2020188423AD0A0
:104990002821C4F20201884235D040212EE000BF18
:1049A00040F22741C4F20201884219DCA021C4F27E
:1049B0000201884227D0B821C4F20201884222D0E5
:1049C00040F210411AE000BF5821C4F202018842AF
:1049D00019D07021C4F20201884214D088210DE060
:1049E00040F22841C4F2020188420CD040F240411A
:1049F000C4F20201884206D040F25841C4F20201DA
:104A0000884240F0ED8045F2574C45F6FC0EC5F665
:104A1000020CC5F6020E604512DC45F22F41C5F6C8
:104A20000201884220DC45F20841C5F602018842B5
:104A300034D045F21C41C5F6020188422ED085E0F3
:104A400045F27F41C5F6020188421BDC45F2584120
:104A5000C5F60201884221D045F26C41C5F602013B
:104A600088421BD072E000BF45F23041C5F602011A
:104A7000884213D045F24441C5F6020188420DD068
:104A800064E000BF45F29441C5F60201884205D0BA
:104A900045F28041C5F60201884257D16FF0070107
:104AA0004CF6CD4251FA80F1CCF6CC42A1FB021279
:104AB000AEF1FC05AEF17C061309A26803F01F01FC
:104AC000802A4FF0010205EB8305256602FA01F208
:104AD0006666A26602D10021616000E06168CBB227
:104AE000013907292B60726016D85E1E082E19D274
:104AF00060450EF1440219DC45F22F41C5F6020172
:104B0000884245DC45F20841C5F6020188425DD085
:104B100045F21C414EE000BF00206067C4E91B0065
:104B20005EE000BFD4E91B02616F56E045F27F41B1
:104B3000C5F60201884235DC45F25841C5F602014E
:104B4000884243D045F26C4134E000BF6FF00F0162
:104B50004AF6AB2251FA80F1CAF6AA22A1FB021250
:104B600040F20F43C4F2020308251109984203F1F1
:104B7000AA060B4688BF05EB121340F60005B042AB
:104B8000C4F2020505F1800628BF0B4695E700BF79
:104B900045F23041C5F60201884217D045F2444142
:104BA00008E000BF45F28041C5F6020188420DD001
:104BB00045F29441C5F60201884207D040F6000054
:104BC000C4F2020000F1FC0E00F5A07201210EEB10
:104BD0008300B140E0662267616700230360516093
:104BE00000206065012184F8351001B0F0BD00BFE0
:104BF0004020D8E500000000B0B500283CD00546B4
:104C000090F83400012801D10220B0BD012085F8C0
:104C1000340095F83500012828D1022085F83500A8
:104C2000002068652868046824F0010404602846B0
:104C3000FDF776FA40F20F422868C4F2020240F211
:104C40006F419042C4F2020118DC6F23C4F20203E8
:104C5000984225DC3F23C4F2020398423CDC102337
:104C6000C4F2020398425ED0282357E04FF400605C
:104C70006865002085F834000120B0BD88421BDC47
:104C800040F23F43C4F2020398422DDC40F210434D
:104C9000C4F20203984246D040F228433EE000BFEF
:104CA0009F23C4F20203984228DC7023C4F202035B
:104CB000984238D0882331E040F29F43C4F2020387
:104CC000984223DC40F27043C4F2020398422AD097
:104CD00040F2884322E000BF4023C4F2020398421E
:104CE00021D058231AE000BF40F24043C4F202032F
:104CF000984218D040F2584310E000BFA023C4F2FD
:104D0000020398420FD0B82308E000BF40F2B84336
:104D1000C4F20203984206D040F2A043C4F2020358
:104D2000984240F02F8103680B2464F3440303602E
:104D30002B6C1BB1036843F008030360884219DC45
:104D40009F23C4F20203984232DC5723C4F20203C9
:104D5000984259DC1023C4F20203984200F0968076
:104D60002823C4F20203984200F090804023C4F24A
:104D7000020389E045F22F43C5F6020398422DDC79
:104D800040F2B743C4F2020398424BDC40F2704356
:104D9000C4F20203984279D040F28843C4F202037D
:104DA000984273D040F2A043C4F202036CE000BF0B
:104DB00040F22743C4F20203984243DCA023C4F22A
:104DC0000203984262D0B823C4F2020398425DD035
:104DD00040F21043C4F2020356E000BF45F26B43B9
:104DE000C5F6020398423FDC45F23043C5F60203A4
:104DF00098424BD045F24443C5F60203984245D051
:104E000045F258433EE000BF5823C4F202039842E3
:104E10003CD07023C4F20203984237D08823C4F2F6
:104E2000020331E040F2B843C4F2020398422DD0AD
:104E300045F20843C5F60203984227D045F21C43C9
:104E400020E000BF40F22843C4F2020398421DD084
:104E500040F24043C4F20203984217D040F2584354
:104E6000C4F2020310E000BF45F26C43C5F6020332
:104E700098420BD045F29443C5F60203984205D000
:104E800045F28043C5F60203984274D12B6E1C682C
:104E9000E40303D51C6844F480741C60EB6E1BB102
:104EA0001D6845F480751D60904211DC6F21C4F2CD
:104EB000020188421EDC3F21C4F20201884235DC37
:104EC0001021C4F20201884255D0282150E000BFD1
:104ED00088421BDC40F23F41C4F2020188422DDCD3
:104EE00040F21041C4F20201884244D040F228410D
:104EF0003EE000BF9F21C4F20201884228DC7021FD
:104F0000C4F20201884236D0882131E040F29F414C
:104F1000C4F20201884223DC40F27041C4F2020173
:104F2000884228D040F2884122E000BF4021C4F2EC
:104F3000020188421FD058211AE000BF40F24041D0
:104F4000C4F20201884216D040F2584110E000BF7E
:104F5000A021C4F2020188420DD0B82108E000BFB0
:104F600040F2B841C4F20201884204D040F2A041AC
:104F7000C4F202018842016841F001010160002091
:104F8000B0BD00BF0368052464F3430303602B6CCA
:104F9000002B3FF4D3AE036843F00403CDE60000DA
:104FA000B0B5044600F0C4F940F200010546C2F273
:104FB0000041621C097818BF0C4400BF00F0B8F92A
:104FC000401BA042FAD3B0BD2DE9F043B7B043F681
:104FD000B4200025C2F2004036953595017832950F
:104FE000CDE93355002940F08A8002AC01210170DF
:104FF000C0212046FBF7D9FA4FF0807002904FF4A1
:10500000967005900520069040200395CDE909058E
:1050100020464FF00C08CDF810800227CDE9077725
:10502000149702F041F808B1FDF79AFB44F2D4401E
:1050300040F20044C5F60200C5F6020432AD4FF05E
:1050400000090168032641F4805101600068294687
:1050500000F48050019001984CF23370CDE9320792
:1050600004F50060CDF8D0903596CDF8D88000F0EA
:105070005BF832A94FF68370CDE9356881E881028B
:1050800004F54060294600F04FF832A98020CDE9B0
:10509000356881E881022046294600F045F832A9AA
:1050A00048F23710CDE9356881E8810204F5A05057
:1050B000294600F039F832A94FF48070359681E81E
:1050C00081020920369004F58060294600F02CF812
:1050D00032A94FF63F00CDE9356881E8810204F539
:1050E0008050294600F020F832A92C20CDE93568FF
:1050F00081E8810204F5C050294600F015F837B068
:10510000BDE8F083000000007047000000000000D0
:105110008821C5F600010A68024208BF704708608E
:10512000FFF7F2BF000000002DE9F04F85B00D68D9
:105130000290002D00F0E68002988E4600F1264293
:105140000A2102F1FF7342F20042C5F60202002476
:1051500090424FEAB32208BF0921092A4FF0010704
:1051600038BF4FEAB32100264FF000080091CDF878
:105170000CE00DE0DEF8005008F1010835FA07F008
:1051800006F1020607F1010704F1040400F0BA80F9
:10519000A7F1010A012000FA0AF315EA0309E9D090
:1051A000DEF804B00BF003056A1E012A22D802982B
:1051B0004FEA4801D0F808C00191032101FA06F234
:1051C00003992CEA020CD1F80CE00EFA06F1DDF896
:1051D0000CE041EA0C01816041686FEA020CCBF3FC
:1051E000001299430346019802FA0AF211435960EA
:1051F0000CE000BF0320032D00FA06F0029B6FEACB
:10520000000C304602D13046032526E0D968DEF88E
:10521000082001EA0C018240022D41EA0201D96016
:105220001BD102466FF0030000EA5A010F20194417
:1052300004F01C0300FA03F51046D1F820E0039AAD
:105240002EEA0505DDF80CE012699A40029B2A431C
:105250000A62DEF804B00BF00305196805FA00F0E5
:1052600001EA0C011BF4403F40EA010018603FF4E2
:1052700081AF44F2F44140F20845C5F60201C5F69B
:1052800000050F23086840F002000860086800F07D
:10529000020004902AF00300049904F00C01425922
:1052A0008B409A43009B03FA01F1114341514FF0A7
:1052B000B0452868DEF8041040EA0902CB0258BF66
:1052C00020EA09028B022A6040F20405C5F60005B7
:1052D000286840EA090258BF20EA09028B032A60C5
:1052E000D5F8800040EA090258BF20EA0902C90344
:1052F000C5F88020E86F40EA090258BF20EA090299
:10530000EA6737E705B0BDE8F08F00000000000055
:10531000002A08BF090481617047000000000000F6
:1053200041F20000C5F600400068000C7047000024
:1053300049F64850C2F20040006870470000000083
:1053400040F2000049F64851C2F20040C2F200416A
:1053500000780A68104408607047000000000000F0
:1053600080B5032000F00CF902F0DAFD44F2184198
:1053700044F6E433C5F60201C0F601030A68096881
:1053800001F00F01C2F30322595C9A5C01F01F0186
:1053900002F01F02D04040F20C02C2F2004220FA9A
:1053A00001F1116040F20801C2F2004108600F20D3
:1053B00000F00AF800281CBF012080BD00F07CF836
:1053C000002080BD0000000070B540F20006C2F26F
:1053D00000463178E1B1044640F20800C2F20040D4
:1053E0004FF47A72B2FBF1F10068B0FBF1F003F018
:1053F00003FE0F2C4FF0010508D838B94FF0FF30ED
:1054000000222146002500F08BF87460284670BD0C
:10541000012070BD00000000B0B502784EF69C5C23
:10542000CEF2000C43784CF8043CFAB14368CCF857
:105430000030037BC17A90F80AE0457B447A42EA67
:105440000372837B42EA0161C27B41EACE41007A6A
:1054500041EA854141EA434141EA024141EA0421EE
:1054600041EA4000CCF80400B0BD00BF0020CCF8F9
:105470000000CCF80400B0BD4EF62450CEF200007F
:10548000BFF35F8F016821F4803101600021016763
:1054900070470000000000004EF6245140F001006B
:1054A000CEF200010867086840F480300860BFF35E
:1054B0004F8FBFF36F8F704781B044F2F440C5F651
:1054C0000200016841F002010160006800F0020082
:1054D0000090009801B07047002848BF70474EF216
:1054E000801300F01F014009CEF20003012202FAEE
:1054F00001F143F82010BFF34F8FBFF36F8F704758
:10550000002848BF704700F01F01012202FA01F194
:105510004EF200124009CEF2000242F8201070470D
:1055200070B54EF60C5C4FF0FF36CEF2000C00F179
:105530006045DCF80030C3F3022E8EF00703042B25
:1055400028BF0423BEF1030406FA03F321EA030192
:1055500000F00F0338BF0024043BB0F1FF3F634469
:1055600006FA04F003F10C0301FA04F1C8BF05F5D3
:10557000644322EA000008430001187070BD000077
:105580004EF60C514FF6FF03CEF200010A681A40A6
:1055900060F30A2242F0806040F0FD7008607047BE
:1055A0000EF012FD0000000001680122C0F8002585
:1055B000002280F8F424886940F000608861486D1A
:1055C00040F08052002042F003024A65704700001C
:1055D0007047000000000000026800205162704720
:1055E00010B5D0F800E0DEF82400E9B3DEF828308A
:1055F000B1F1010C00EB13432DD00020002100BFBE
:105600000EEB8000D0F8044141F00100C0B28445A7
:1056100003EB14431FD90EEB8000D0F8044141F096
:105620000200C0B2844503EB144314D90EEB800092
:10563000D0F8044141F00300C0B2844503EB1443A9
:1056400009D90EEB80000431D0F80441C8B284457A
:1056500003EB1443D4D80EEB8C0043EA0241C0F8AC
:105660000411002010BD00BF40EA0240CEF828001F
:10567000002010BD00000000D0F8080509F0C0BEF1
:1056800001EBC10200EB8202D0F80805926C09F030
:105690001BBE00000000000001EBC10200EB820213
:1056A000D0F80805D2F8882209F06EBE000000008C
:1056B000D0F8080509F0A8BE10B5044601F00F00A7
:1056C0000A0600EBC00104EB810213D402F51F713E
:1056D000002382F87D3294F8BC240870012A13D08C
:1056E000012084F8BC0420680AF0AAFC002084F899
:1056F000BC0410BD02F13C01012382F83D3094F856
:10570000BC240870012AEBD1022010BD000000006B
:10571000B0B5044601F00F006268904202D9012042
:10572000B0BD00BF090609D400EBC001002304EBA3
:10573000810202F51F7182F87D3208E000EBC001A2
:10574000012304EB810202F13C0182F83D3094F820
:10575000BC2400258D70012A087001D10220B0BD43
:10576000012084F8BC0420680AF08EFE284684F8E4
:10577000BC54B0BD0000000001F00F0101EBC101FD
:1057800000EB8100D0F8900270470000000000009C
:10579000B0B5054601F00F000C0600EBC00105EBAB
:1057A000810C05D40CF51F7100248CF87D4204E0B7
:1057B0000CF13C0101248CF83D404C7808708A6063
:1057C000002C0B7118BF4883022B01D100204871B7
:1057D00095F8BC04012801D10220B0BD012085F854
:1057E000BC0428680AF0CCFA002085F8BC04B0BDDF
:1057F00080B501F00F0E0EEBCE0100EB810C002105
:10580000CCE9A331C368CCF888228CF87D12012B37
:105810008CF87CE20CF51F7108BFCCF89822DAB244
:1058200000680AF081FE002080BD0000000000003A
:10583000B0B5044601F00F054068854202D9012049
:10584000B0BD00BF080609D401EBC100002204EB83
:10585000800000F51F7180F87D2208E005EBC5008F
:10586000012204EB800000F13C0180F83D2094F817
:10587000BC2401208870012A0D7001D10220B0BD26
:1058800084F8BC0420680AF027FE1DB1002084F8CB
:10589000BC04B0BD217B206804F2C4420AF0C4FD00
:1058A000002084F8BC04B0BD80B501F00F0E0EEBF3
:1058B000CE0100EB810C614601F83CEF4FF0000E89
:1058C000C1F814E04FF0010E81F801E0D0F80CE0CF
:1058D000CA60BEF1010F0B6108BFCCF858205FFA17
:1058E0008EF200680AF020FE002080BD000000005B
:1058F0002DE9F04F89B00568824628460BF038F84C
:1059000010B109B0BDE8F08FDAF800000BF060F8D4
:105910000028F6D0D5F80808C0F30D20CAF8FC041A
:10592000DAF800000BF054F88007DAF8000003D52D
:10593000416901F00201416105F500660BF048F88C
:10594000C006DAF80000059540D5816921F0100104
:1059500081612C6A04F00F05C4F3434006281DD072
:1059600002282CD147F6F070044028D005EBC50082
:1059700022090AEB80050598D5F888120BF02CF85F
:10598000D5F88802D5F8901200EB1410C5F88802FB
:1059900001EB1410C5F8900211E000BF0AF2C441F7
:1059A000082205980BF018F805EBC500C4F30A119E
:1059B0000AEB8000D0F890221144C0F89012DAF877
:1059C0000000816941F010018161059D04960AF093
:1059D000FFFF0003CDF820A040F10A81DAF80000B3
:1059E0000AF0D2FF002800F0038106460AF5277866
:1059F00000274FF4306B00240AF2C44007900BE0FC
:105A0000B7EB560F04F101044FEA56060BF1200BD9
:105A100008F1240800F0EC80F007F1D05FFA84F977
:105A2000DAF8000049460AF0CBFF8246C0076ED084
:105A300005EB0B0001218160089F38680BEB00012A
:105A4000036C8A68FF68012F2AD117073CD4970698
:105A50005AD412F0280F4FF0000758D143F20B0729
:105A6000C4F65477BB4202D312F4004248D1D8F8AE
:105A7000002009696FF3DF41A2EB01014FF000073D
:105A800048F80C1CDCB9089BD3F88C22002A00F0E3
:105A9000A980D3F888020844C3F888020FE000BF49
:105AA00043F20B07C4F65477FF37BB421AD11004F8
:105AB00026D490064FF0000701D520208860089872
:105AC0004946FFF7E9FD22E043F20B000027C4F648
:105AD000547083421BD312F4004018D04FF400409E
